{"abi":[{"type":"constructor","inputs":[{"name":"_platformWallet","type":"address","internalType":"address"}],"stateMutability":"nonpayable"},{"type":"function","name":"BPS_DENOMINATOR","inputs":[],"outputs":[{"name":"","type":"uint256","internalType":"uint256"}],"stateMutability":"view"},{"type":"function","name":"MIN_PAYMENT_AMOUNT","inputs":[],"outputs":[{"name":"","type":"uint256","internalType":"uint256"}],"stateMutability":"view"},{"type":"function","name":"PLATFORM_FEE_BPS","inputs":[],"outputs":[{"name":"","type":"uint256","internalType":"uint256"}],"stateMutability":"view"},{"type":"function","name":"allowedTokens","inputs":[{"name":"","type":"address","internalType":"address"}],"outputs":[{"name":"","type":"bool","internalType":"bool"}],"stateMutability":"view"},{"type":"function","name":"calculateFeeSplit","inputs":[{"name":"amount","type":"uint256","internalType":"uint256"}],"outputs":[{"name":"freelancerAmount","type":"uint256","internalType":"uint256"},{"name":"platformFee","type":"uint256","internalType":"uint256"}],"stateMutability":"pure"},{"type":"function","name":"emergencyWithdraw","inputs":[{"name":"token","type":"address","internalType":"address"},{"name":"to","type":"address","internalType":"address"},{"name":"amount","type":"uint256","internalType":"uint256"}],"outputs":[],"stateMutability":"nonpayable"},{"type":"function","name":"isTokenAllowed","inputs":[{"name":"token","type":"address","internalType":"address"}],"outputs":[{"name":"","type":"bool","internalType":"bool"}],"stateMutability":"view"},{"type":"function","name":"owner","inputs":[],"outputs":[{"name":"","type":"address","internalType":"address"}],"stateMutability":"view"},{"type":"function","name":"pause","inputs":[],"outputs":[],"stateMutability":"nonpayable"},{"type":"function","name":"paused","inputs":[],"outputs":[{"name":"","type":"bool","internalType":"bool"}],"stateMutability":"view"},{"type":"function","name":"pay","inputs":[{"name":"token","type":"address","internalType":"address"},{"name":"amount","type":"uint256","internalType":"uint256"},{"name":"freelancer","type":"address","internalType":"address"},{"name":"invoiceId","type":"string","internalType":"string"}],"outputs":[],"stateMutability":"nonpayable"},{"type":"function","name":"paymentCount","inputs":[],"outputs":[{"name":"","type":"uint256","internalType":"uint256"}],"stateMutability":"view"},{"type":"function","name":"platformWallet","inputs":[],"outputs":[{"name":"","type":"address","internalType":"address"}],"stateMutability":"view"},{"type":"function","name":"renounceOwnership","inputs":[],"outputs":[],"stateMutability":"nonpayable"},{"type":"function","name":"setPlatformWallet","inputs":[{"name":"newWallet","type":"address","internalType":"address"}],"outputs":[],"stateMutability":"nonpayable"},{"type":"function","name":"setTokenAllowed","inputs":[{"name":"token","type":"address","internalType":"address"},{"name":"allowed","type":"bool","internalType":"bool"}],"outputs":[],"stateMutability":"nonpayable"},{"type":"function","name":"setWhitelistEnabled","inputs":[{"name":"enabled","type":"bool","internalType":"bool"}],"outputs":[],"stateMutability":"nonpayable"},{"type":"function","name":"tokenWhitelistEnabled","inputs":[],"outputs":[{"name":"","type":"bool","internalType":"bool"}],"stateMutability":"view"},{"type":"function","name":"transferOwnership","inputs":[{"name":"newOwner","type":"address","internalType":"address"}],"outputs":[],"stateMutability":"nonpayable"},{"type":"function","name":"unpause","inputs":[],"outputs":[],"stateMutability":"nonpayable"},{"type":"event","name":"OwnershipTransferred","inputs":[{"name":"previousOwner","type":"address","indexed":true,"internalType":"address"},{"name":"newOwner","type":"address","indexed":true,"internalType":"address"}],"anonymous":false},{"type":"event","name":"Paused","inputs":[{"name":"account","type":"address","indexed":false,"internalType":"address"}],"anonymous":false},{"type":"event","name":"PaymentProcessed","inputs":[{"name":"paymentId","type":"uint256","indexed":true,"internalType":"uint256"},{"name":"payer","type":"address","indexed":true,"internalType":"address"},{"name":"freelancer","type":"address","indexed":true,"internalType":"address"},{"name":"token","type":"address","indexed":false,"internalType":"address"},{"name":"totalAmount","type":"uint256","indexed":false,"internalType":"uint256"},{"name":"freelancerAmount","type":"uint256","indexed":false,"internalType":"uint256"},{"name":"platformFee","type":"uint256","indexed":false,"internalType":"uint256"},{"name":"invoiceId","type":"string","indexed":false,"internalType":"string"}],"anonymous":false},{"type":"event","name":"PlatformWalletUpdated","inputs":[{"name":"oldWallet","type":"address","indexed":true,"internalType":"address"},{"name":"newWallet","type":"address","indexed":true,"internalType":"address"}],"anonymous":false},{"type":"event","name":"TokenWhitelistUpdated","inputs":[{"name":"token","type":"address","indexed":true,"internalType":"address"},{"name":"allowed","type":"bool","indexed":false,"internalType":"bool"}],"anonymous":false},{"type":"event","name":"Unpaused","inputs":[{"name":"account","type":"address","indexed":false,"internalType":"address"}],"anonymous":false},{"type":"event","name":"WhitelistEnforcementUpdated","inputs":[{"name":"enabled","type":"bool","indexed":false,"internalType":"bool"}],"anonymous":false},{"type":"error","name":"EnforcedPause","inputs":[]},{"type":"error","name":"ExpectedPause","inputs":[]},{"type":"error","name":"InvalidAddress","inputs":[]},{"type":"error","name":"InvalidAmount","inputs":[]},{"type":"error","name":"OwnableInvalidOwner","inputs":[{"name":"owner","type":"address","internalType":"address"}]},{"type":"error","name":"OwnableUnauthorizedAccount","inputs":[{"name":"account","type":"address","internalType":"address"}]},{"type":"error","name":"ReentrancyGuardReentrantCall","inputs":[]},{"type":"error","name":"SafeERC20FailedOperation","inputs":[{"name":"token","type":"address","internalType":"address"}]},{"type":"error","name":"SelfPaymentNotAllowed","inputs":[]},{"type":"error","name":"TokenNotAllowed","inputs":[]},{"type":"error","name":"ZeroFee","inputs":[]}],"bytecode":{"object":"0x60803461011557601f610b4038819003918201601f19168301916001600160401b038311848410176101195780849260209460405283398101031261011557516001600160a01b03811690819003610115573315610102575f8054336001600160a01b0319821681178355604051939290916001600160a01b0316907f8be0079c531659141344cd1fd0a4f28419497f9722a3daafe3b4186f6b6457e09080a360017f9b779b17422d0df92223018b32b4d1fa46e071723d6817e2486d003becc55f005580156100f357600180546001600160a01b0319169190911790556004805460ff19169055610a12908161012e8239f35b63e6c4247b60e01b5f5260045ffd5b631e4fbdf760e01b5f525f60045260245ffd5b5f80fd5b634e487b7160e01b5f52604160045260245ffdfe60806040526004361015610011575f80fd5b5f3560e01c8063052d9e7e1461086e5780630937e68a1461085157806315f69012146107cd5780631a681c0d146105215780631f922e5f146105055780633f4ba83a14610499578063539aa77f1461047e5780635c975abb1461045a578063715018a6146104035780638456cb59146103a35780638831e9cf146103305780638da5cb5b14610309578063a5fa86f1146102b0578063c7fa9da51461028e578063e1a4521814610272578063e63ea40814610210578063e744092e146101d3578063f2fde38b1461014e578063f9eaee0d146101215763fa2af9da146100f5575f80fd5b3461011d575f36600319011261011d576001546040516001600160a01b039091168152602090f35b5f80fd5b3461011d57602036600319011261011d57602061014461013f6108d0565b6108f3565b6040519015158152f35b3461011d57602036600319011261011d576101676108d0565b61016f610921565b6001600160a01b031680156101c0575f80546001600160a01b03198116831782556001600160a01b0316907f8be0079c531659141344cd1fd0a4f28419497f9722a3daafe3b4186f6b6457e09080a3005b631e4fbdf760e01b5f525f60045260245ffd5b3461011d57602036600319011261011d576001600160a01b036101f46108d0565b165f526003602052602060ff60405f2054166040519015158152f35b3461011d57606036600319011261011d576102296108d0565b602435906001600160a01b03821680830361011d57610246610921565b156102635761026191604435916001600160a01b0316610964565b005b63e6c4247b60e01b5f5260045ffd5b3461011d575f36600319011261011d5760206040516127108152f35b3461011d575f36600319011261011d57602060ff600454166040519015158152f35b3461011d57602036600319011261011d576004356032810290808204603214811517156102f5576102e86127106040930480926108e6565b9082519182526020820152f35b634e487b7160e01b5f52601160045260245ffd5b3461011d575f36600319011261011d575f546040516001600160a01b039091168152602090f35b3461011d57602036600319011261011d576103496108d0565b610351610921565b6001600160a01b0316801561026357600180546001600160a01b0319811683179091556001600160a01b03167ff84f6b525c89a18c80bbbc0c62a7eb5390956d6b8432ab067b49963a98f8c38f5f80a3005b3461011d575f36600319011261011d576103bb610921565b6103c3610947565b5f805460ff60a01b1916600160a01b1790556040513381527f62e78cea01bee320cd4e420270b5ea74000d11b0c9f74754ebdbfc544b05a25890602090a1005b3461011d575f36600319011261011d5761041b610921565b5f80546001600160a01b0319811682556001600160a01b03167f8be0079c531659141344cd1fd0a4f28419497f9722a3daafe3b4186f6b6457e08280a3005b3461011d575f36600319011261011d57602060ff5f5460a01c166040519015158152f35b3461011d575f36600319011261011d57602060405160328152f35b3461011d575f36600319011261011d576104b1610921565b5f5460ff8160a01c16156104f65760ff60a01b19165f556040513381527f5db9ee0a495bf2e6ff9c91a7834c1ba4fdd244a5e8aa4e537bd38aeae4b073aa90602090a1005b638dfc202b60e01b5f5260045ffd5b3461011d575f36600319011261011d5760206040516103e88152f35b3461011d57608036600319011261011d5761053a6108d0565b6044356001600160a01b038116919060243583820361011d5760643567ffffffffffffffff811161011d573660238201121561011d5780600401359367ffffffffffffffff851161011d57366024868401011161011d5760027f9b779b17422d0df92223018b32b4d1fa46e071723d6817e2486d003becc55f0054146107be5760027f9b779b17422d0df92223018b32b4d1fa46e071723d6817e2486d003becc55f00556105e6610947565b6001600160a01b0316918215610263578515610263576103e881106107af573386146107a05760ff6004541680610789575b61077a5760328102818104603214821517156102f55761271090049061063e82826108e6565b9060016002540195866002556040516323b872dd60e01b5f5233600452306024528260445260205f606481808b5af19060015f5114821615610759575b6040525f606052156107465792828695926106bb6024958b977f8e9167e24465c38efbe9b638db17826c42ddb71445fa6daec196efab6f222e659a610964565b82610729575b60405196875260208701526040860152606085015260a060808501528260a08501520160c08301375f60c0858301015260c0813395601f80199101168101030190a460017f9b779b17422d0df92223018b32b4d1fa46e071723d6817e2486d003becc55f0055005b6001546107419084906001600160a01b031689610964565b6106c1565b85635274afe760e01b5f5260045260245ffd5b90600181151661077157873b15153d1516169061067b565b503d5f823e3d90fd5b63514e24c360e11b5f5260045ffd5b50825f52600360205260ff60405f20541615610618565b638d0c95b960e01b5f5260045ffd5b63162908e360e11b5f5260045ffd5b633ee5aeb560e01b5f5260045ffd5b3461011d57604036600319011261011d576107e66108d0565b6024359081151580920361011d576107fc610921565b6001600160a01b03169081156102635760207f67821d5384bb02aab1ba91a477f89c9966cd30f475b02618bdc58712bca5127591835f526003825260405f2060ff1981541660ff8316179055604051908152a2005b3461011d575f36600319011261011d576020600254604051908152f35b3461011d57602036600319011261011d5760043580151580910361011d5760207ff53fed92c8c7fa28287c094817d86453491a705cb668c75b35525c0532360d2c916108b8610921565b60ff196004541660ff821617600455604051908152a1005b600435906001600160a01b038216820361011d57565b919082039182116102f557565b60ff600454161561091b576001600160a01b03165f9081526003602052604090205460ff1690565b50600190565b5f546001600160a01b0316330361093457565b63118cdaa760e01b5f523360045260245ffd5b60ff5f5460a01c1661095557565b63d93c066560e01b5f5260045ffd5b916040519163a9059cbb60e01b5f5260018060a01b031660045260245260205f60448180865af19060015f51148216156109c4575b604052156109a45750565b635274afe760e01b5f9081526001600160a01b0391909116600452602490fd5b90600181151661077157823b15153d1516169061099956fea26469706673582212204b646e75f9c4a8599a03cb8285ada5991aa859f3a082f7d5b533d5d7a2cca71064736f6c634300081c0033","linkReferences":{}},"methodIdentifiers":{"BPS_DENOMINATOR()":"e1a45218","MIN_PAYMENT_AMOUNT()":"1f922e5f","PLATFORM_FEE_BPS()":"539aa77f","allowedTokens(address)":"e744092e","calculateFeeSplit(uint256)":"a5fa86f1","emergencyWithdraw(address,address,uint256)":"e63ea408","isTokenAllowed(address)":"f9eaee0d","owner()":"8da5cb5b","pause()":"8456cb59","paused()":"5c975abb","pay(address,uint256,address,string)":"1a681c0d","paymentCount()":"0937e68a","platformWallet()":"fa2af9da","renounceOwnership()":"715018a6","setPlatformWallet(address)":"8831e9cf","setTokenAllowed(address,bool)":"15f69012","setWhitelistEnabled(bool)":"052d9e7e","tokenWhitelistEnabled()":"c7fa9da5","transferOwnership(address)":"f2fde38b","unpause()":"3f4ba83a"},"id":0}