{
  "_format": "hh-sol-artifact-1",
  "contractName": "HedwigPayment",
  "sourceName": "contracts/HedwigPayment.sol",
  "abi": [
    {
      "inputs": [
        {
          "internalType": "address",
          "name": "_platformWallet",
          "type": "address"
        }
      ],
      "stateMutability": "nonpayable",
      "type": "constructor"
    },
    {
      "inputs": [],
      "name": "EnforcedPause",
      "type": "error"
    },
    {
      "inputs": [],
      "name": "ExpectedPause",
      "type": "error"
    },
    {
      "inputs": [],
      "name": "InvalidAddress",
      "type": "error"
    },
    {
      "inputs": [],
      "name": "InvalidAmount",
      "type": "error"
    },
    {
      "inputs": [
        {
          "internalType": "address",
          "name": "owner",
          "type": "address"
        }
      ],
      "name": "OwnableInvalidOwner",
      "type": "error"
    },
    {
      "inputs": [
        {
          "internalType": "address",
          "name": "account",
          "type": "address"
        }
      ],
      "name": "OwnableUnauthorizedAccount",
      "type": "error"
    },
    {
      "inputs": [],
      "name": "ReentrancyGuardReentrantCall",
      "type": "error"
    },
    {
      "inputs": [
        {
          "internalType": "address",
          "name": "token",
          "type": "address"
        }
      ],
      "name": "SafeERC20FailedOperation",
      "type": "error"
    },
    {
      "inputs": [],
      "name": "SelfPaymentNotAllowed",
      "type": "error"
    },
    {
      "inputs": [],
      "name": "TokenNotAllowed",
      "type": "error"
    },
    {
      "inputs": [],
      "name": "ZeroFee",
      "type": "error"
    },
    {
      "anonymous": false,
      "inputs": [
        {
          "indexed": true,
          "internalType": "address",
          "name": "previousOwner",
          "type": "address"
        },
        {
          "indexed": true,
          "internalType": "address",
          "name": "newOwner",
          "type": "address"
        }
      ],
      "name": "OwnershipTransferred",
      "type": "event"
    },
    {
      "anonymous": false,
      "inputs": [
        {
          "indexed": false,
          "internalType": "address",
          "name": "account",
          "type": "address"
        }
      ],
      "name": "Paused",
      "type": "event"
    },
    {
      "anonymous": false,
      "inputs": [
        {
          "indexed": true,
          "internalType": "uint256",
          "name": "paymentId",
          "type": "uint256"
        },
        {
          "indexed": true,
          "internalType": "address",
          "name": "payer",
          "type": "address"
        },
        {
          "indexed": true,
          "internalType": "address",
          "name": "freelancer",
          "type": "address"
        },
        {
          "indexed": false,
          "internalType": "address",
          "name": "token",
          "type": "address"
        },
        {
          "indexed": false,
          "internalType": "uint256",
          "name": "totalAmount",
          "type": "uint256"
        },
        {
          "indexed": false,
          "internalType": "uint256",
          "name": "freelancerAmount",
          "type": "uint256"
        },
        {
          "indexed": false,
          "internalType": "uint256",
          "name": "platformFee",
          "type": "uint256"
        },
        {
          "indexed": false,
          "internalType": "string",
          "name": "invoiceId",
          "type": "string"
        }
      ],
      "name": "PaymentProcessed",
      "type": "event"
    },
    {
      "anonymous": false,
      "inputs": [
        {
          "indexed": true,
          "internalType": "address",
          "name": "oldWallet",
          "type": "address"
        },
        {
          "indexed": true,
          "internalType": "address",
          "name": "newWallet",
          "type": "address"
        }
      ],
      "name": "PlatformWalletUpdated",
      "type": "event"
    },
    {
      "anonymous": false,
      "inputs": [
        {
          "indexed": true,
          "internalType": "address",
          "name": "token",
          "type": "address"
        },
        {
          "indexed": false,
          "internalType": "bool",
          "name": "allowed",
          "type": "bool"
        }
      ],
      "name": "TokenWhitelistUpdated",
      "type": "event"
    },
    {
      "anonymous": false,
      "inputs": [
        {
          "indexed": false,
          "internalType": "address",
          "name": "account",
          "type": "address"
        }
      ],
      "name": "Unpaused",
      "type": "event"
    },
    {
      "anonymous": false,
      "inputs": [
        {
          "indexed": false,
          "internalType": "bool",
          "name": "enabled",
          "type": "bool"
        }
      ],
      "name": "WhitelistEnforcementUpdated",
      "type": "event"
    },
    {
      "inputs": [],
      "name": "BPS_DENOMINATOR",
      "outputs": [
        {
          "internalType": "uint256",
          "name": "",
          "type": "uint256"
        }
      ],
      "stateMutability": "view",
      "type": "function"
    },
    {
      "inputs": [],
      "name": "MIN_PAYMENT_AMOUNT",
      "outputs": [
        {
          "internalType": "uint256",
          "name": "",
          "type": "uint256"
        }
      ],
      "stateMutability": "view",
      "type": "function"
    },
    {
      "inputs": [],
      "name": "PLATFORM_FEE_BPS",
      "outputs": [
        {
          "internalType": "uint256",
          "name": "",
          "type": "uint256"
        }
      ],
      "stateMutability": "view",
      "type": "function"
    },
    {
      "inputs": [
        {
          "internalType": "address",
          "name": "",
          "type": "address"
        }
      ],
      "name": "allowedTokens",
      "outputs": [
        {
          "internalType": "bool",
          "name": "",
          "type": "bool"
        }
      ],
      "stateMutability": "view",
      "type": "function"
    },
    {
      "inputs": [
        {
          "internalType": "uint256",
          "name": "amount",
          "type": "uint256"
        }
      ],
      "name": "calculateFeeSplit",
      "outputs": [
        {
          "internalType": "uint256",
          "name": "freelancerAmount",
          "type": "uint256"
        },
        {
          "internalType": "uint256",
          "name": "platformFee",
          "type": "uint256"
        }
      ],
      "stateMutability": "pure",
      "type": "function"
    },
    {
      "inputs": [
        {
          "internalType": "address",
          "name": "token",
          "type": "address"
        },
        {
          "internalType": "address",
          "name": "to",
          "type": "address"
        },
        {
          "internalType": "uint256",
          "name": "amount",
          "type": "uint256"
        }
      ],
      "name": "emergencyWithdraw",
      "outputs": [],
      "stateMutability": "nonpayable",
      "type": "function"
    },
    {
      "inputs": [
        {
          "internalType": "address",
          "name": "token",
          "type": "address"
        }
      ],
      "name": "isTokenAllowed",
      "outputs": [
        {
          "internalType": "bool",
          "name": "",
          "type": "bool"
        }
      ],
      "stateMutability": "view",
      "type": "function"
    },
    {
      "inputs": [],
      "name": "owner",
      "outputs": [
        {
          "internalType": "address",
          "name": "",
          "type": "address"
        }
      ],
      "stateMutability": "view",
      "type": "function"
    },
    {
      "inputs": [],
      "name": "pause",
      "outputs": [],
      "stateMutability": "nonpayable",
      "type": "function"
    },
    {
      "inputs": [],
      "name": "paused",
      "outputs": [
        {
          "internalType": "bool",
          "name": "",
          "type": "bool"
        }
      ],
      "stateMutability": "view",
      "type": "function"
    },
    {
      "inputs": [
        {
          "internalType": "address",
          "name": "token",
          "type": "address"
        },
        {
          "internalType": "uint256",
          "name": "amount",
          "type": "uint256"
        },
        {
          "internalType": "address",
          "name": "freelancer",
          "type": "address"
        },
        {
          "internalType": "string",
          "name": "invoiceId",
          "type": "string"
        }
      ],
      "name": "pay",
      "outputs": [],
      "stateMutability": "nonpayable",
      "type": "function"
    },
    {
      "inputs": [],
      "name": "paymentCount",
      "outputs": [
        {
          "internalType": "uint256",
          "name": "",
          "type": "uint256"
        }
      ],
      "stateMutability": "view",
      "type": "function"
    },
    {
      "inputs": [],
      "name": "platformWallet",
      "outputs": [
        {
          "internalType": "address",
          "name": "",
          "type": "address"
        }
      ],
      "stateMutability": "view",
      "type": "function"
    },
    {
      "inputs": [],
      "name": "renounceOwnership",
      "outputs": [],
      "stateMutability": "nonpayable",
      "type": "function"
    },
    {
      "inputs": [
        {
          "internalType": "address",
          "name": "newWallet",
          "type": "address"
        }
      ],
      "name": "setPlatformWallet",
      "outputs": [],
      "stateMutability": "nonpayable",
      "type": "function"
    },
    {
      "inputs": [
        {
          "internalType": "address",
          "name": "token",
          "type": "address"
        },
        {
          "internalType": "bool",
          "name": "allowed",
          "type": "bool"
        }
      ],
      "name": "setTokenAllowed",
      "outputs": [],
      "stateMutability": "nonpayable",
      "type": "function"
    },
    {
      "inputs": [
        {
          "internalType": "bool",
          "name": "enabled",
          "type": "bool"
        }
      ],
      "name": "setWhitelistEnabled",
      "outputs": [],
      "stateMutability": "nonpayable",
      "type": "function"
    },
    {
      "inputs": [],
      "name": "tokenWhitelistEnabled",
      "outputs": [
        {
          "internalType": "bool",
          "name": "",
          "type": "bool"
        }
      ],
      "stateMutability": "view",
      "type": "function"
    },
    {
      "inputs": [
        {
          "internalType": "address",
          "name": "newOwner",
          "type": "address"
        }
      ],
      "name": "transferOwnership",
      "outputs": [],
      "stateMutability": "nonpayable",
      "type": "function"
    },
    {
      "inputs": [],
      "name": "unpause",
      "outputs": [],
      "stateMutability": "nonpayable",
      "type": "function"
    }
  ],
  "bytecode": "0x608060405234801561001057600080fd5b50604051610e39380380610e3983398101604081905261002f91610129565b338061005557604051631e4fbdf760e01b81526000600482015260240160405180910390fd5b61005e816100d9565b5060017f9b779b17422d0df92223018b32b4d1fa46e071723d6817e2486d003becc55f00556001600160a01b0381166100aa5760405163e6c4247b60e01b815260040160405180910390fd5b600180546001600160a01b0319166001600160a01b03929092169190911790556004805460ff19169055610159565b600080546001600160a01b038381166001600160a01b0319831681178455604051919092169283917f8be0079c531659141344cd1fd0a4f28419497f9722a3daafe3b4186f6b6457e09190a35050565b60006020828403121561013b57600080fd5b81516001600160a01b038116811461015257600080fd5b9392505050565b610cd1806101686000396000f3fe608060405234801561001057600080fd5b506004361061012c5760003560e01c80638831e9cf116100ad578063e63ea40811610071578063e63ea40814610245578063e744092e14610258578063f2fde38b1461027b578063f9eaee0d1461028e578063fa2af9da146102a157600080fd5b80638831e9cf146101cf5780638da5cb5b146101e2578063a5fa86f114610207578063c7fa9da51461022f578063e1a452181461023c57600080fd5b80633f4ba83a116100f45780633f4ba83a14610191578063539aa77f146101995780635c975abb146101a1578063715018a6146101bf5780638456cb59146101c757600080fd5b8063052d9e7e146101315780630937e68a1461014657806315f69012146101625780631a681c0d146101755780631f922e5f14610188575b600080fd5b61014461013f366004610a66565b6102b4565b005b61014f60025481565b6040519081526020015b60405180910390f35b610144610170366004610a9f565b610303565b610144610183366004610ad2565b610391565b61014f6103e881565b61014461058c565b61014f603281565b600054600160a01b900460ff165b6040519015158152602001610159565b61014461059e565b6101446105b0565b6101446101dd366004610b6f565b6105c0565b6000546001600160a01b03165b6040516001600160a01b039091168152602001610159565b61021a610215366004610b8a565b610641565b60408051928352602083019190915201610159565b6004546101af9060ff1681565b61014f61271081565b610144610253366004610ba3565b61066f565b6101af610266366004610b6f565b60036020526000908152604090205460ff1681565b610144610289366004610b6f565b6106b7565b6101af61029c366004610b6f565b6106fa565b6001546101ef906001600160a01b031681565b6102bc61072e565b6004805460ff19168215159081179091556040519081527ff53fed92c8c7fa28287c094817d86453491a705cb668c75b35525c0532360d2c9060200160405180910390a150565b61030b61072e565b6001600160a01b0382166103325760405163e6c4247b60e01b815260040160405180910390fd5b6001600160a01b038216600081815260036020908152604091829020805460ff191685151590811790915591519182527f67821d5384bb02aab1ba91a477f89c9966cd30f475b02618bdc58712bca51275910160405180910390a25050565b61039961075b565b6103a1610789565b6001600160a01b0385166103c85760405163e6c4247b60e01b815260040160405180910390fd5b6001600160a01b0383166103ef5760405163e6c4247b60e01b815260040160405180910390fd5b6103e88410156104125760405163162908e360e11b815260040160405180910390fd5b336001600160a01b0384160361043b57604051638d0c95b960e01b815260040160405180910390fd5b60045460ff16801561046657506001600160a01b03851660009081526003602052604090205460ff16155b156104845760405163514e24c360e11b815260040160405180910390fd5b6000612710610494603287610bf6565b61049e9190610c13565b905060006104ac8287610c35565b60028054600101908190559091506104cf6001600160a01b03891633308a6107b4565b6104e36001600160a01b03891687846107f0565b821561050357600154610503906001600160a01b038a81169116856107f0565b856001600160a01b0316336001600160a01b0316827f8e9167e24465c38efbe9b638db17826c42ddb71445fa6daec196efab6f222e658b8b87898c8c60405161055196959493929190610c48565b60405180910390a450505061058560017f9b779b17422d0df92223018b32b4d1fa46e071723d6817e2486d003becc55f0055565b5050505050565b61059461072e565b61059c610825565b565b6105a661072e565b61059c600061087a565b6105b861072e565b61059c6108ca565b6105c861072e565b6001600160a01b0381166105ef5760405163e6c4247b60e01b815260040160405180910390fd5b600180546001600160a01b038381166001600160a01b0319831681179093556040519116919082907ff84f6b525c89a18c80bbbc0c62a7eb5390956d6b8432ab067b49963a98f8c38f90600090a35050565b600080612710610652603285610bf6565b61065c9190610c13565b90506106688184610c35565b9150915091565b61067761072e565b6001600160a01b03821661069e5760405163e6c4247b60e01b815260040160405180910390fd5b6106b26001600160a01b03841683836107f0565b505050565b6106bf61072e565b6001600160a01b0381166106ee57604051631e4fbdf760e01b8152600060048201526024015b60405180910390fd5b6106f78161087a565b50565b60045460009060ff1661070f57506001919050565b506001600160a01b031660009081526003602052604090205460ff1690565b6000546001600160a01b0316331461059c5760405163118cdaa760e01b81523360048201526024016106e5565b61076361090d565b60027f9b779b17422d0df92223018b32b4d1fa46e071723d6817e2486d003becc55f0055565b600054600160a01b900460ff161561059c5760405163d93c066560e01b815260040160405180910390fd5b6107c284848484600161094f565b6107ea57604051635274afe760e01b81526001600160a01b03851660048201526024016106e5565b50505050565b6107fd83838360016109c1565b6106b257604051635274afe760e01b81526001600160a01b03841660048201526024016106e5565b61082d610a27565b6000805460ff60a01b191690557f5db9ee0a495bf2e6ff9c91a7834c1ba4fdd244a5e8aa4e537bd38aeae4b073aa335b6040516001600160a01b03909116815260200160405180910390a1565b600080546001600160a01b038381166001600160a01b0319831681178455604051919092169283917f8be0079c531659141344cd1fd0a4f28419497f9722a3daafe3b4186f6b6457e09190a35050565b6108d2610789565b6000805460ff60a01b1916600160a01b1790557f62e78cea01bee320cd4e420270b5ea74000d11b0c9f74754ebdbfc544b05a25861085d3390565b7f9b779b17422d0df92223018b32b4d1fa46e071723d6817e2486d003becc55f005460020361059c57604051633ee5aeb560e01b815260040160405180910390fd5b6040516323b872dd60e01b60008181526001600160a01b038781166004528616602452604485905291602083606481808c5af1925060016000511483166109af5783831516156109a2573d6000823e3d81fd5b6000883b113d1516831692505b60405250600060605295945050505050565b60405163a9059cbb60e01b60008181526001600160a01b038616600452602485905291602083604481808b5af192506001600051148316610a1b578383151615610a0e573d6000823e3d81fd5b6000873b113d1516831692505b60405250949350505050565b600054600160a01b900460ff1661059c57604051638dfc202b60e01b815260040160405180910390fd5b80358015158114610a6157600080fd5b919050565b600060208284031215610a7857600080fd5b610a8182610a51565b9392505050565b80356001600160a01b0381168114610a6157600080fd5b60008060408385031215610ab257600080fd5b610abb83610a88565b9150610ac960208401610a51565b90509250929050565b600080600080600060808688031215610aea57600080fd5b610af386610a88565b945060208601359350610b0860408701610a88565b9250606086013567ffffffffffffffff811115610b2457600080fd5b8601601f81018813610b3557600080fd5b803567ffffffffffffffff811115610b4c57600080fd5b886020828401011115610b5e57600080fd5b959894975092955050506020019190565b600060208284031215610b8157600080fd5b610a8182610a88565b600060208284031215610b9c57600080fd5b5035919050565b600080600060608486031215610bb857600080fd5b610bc184610a88565b9250610bcf60208501610a88565b929592945050506040919091013590565b634e487b7160e01b600052601160045260246000fd5b8082028115828204841417610c0d57610c0d610be0565b92915050565b600082610c3057634e487b7160e01b600052601260045260246000fd5b500490565b81810381811115610c0d57610c0d610be0565b60018060a01b038716815285602082015284604082015283606082015260a060808201528160a0820152818360c0830137600081830160c090810191909152601f909201601f191601019594505050505056fea2646970667358221220419f1a23488393996bcce8f67d87797dc924343e51fc196d9aabc047ed41d0d964736f6c634300081c0033",
  "linkReferences": {},
  "deployedLinkReferences": {}
}