{
  "_format": "hh-sol-artifact-1",
  "contractName": "HedwigProofRegistry",
  "sourceName": "contracts/HedwigProofRegistry.sol",
  "abi": [
    {
      "inputs": [
        {
          "internalType": "address",
          "name": "initialOwner",
          "type": "address"
        },
        {
          "internalType": "address",
          "name": "initialWriter",
          "type": "address"
        }
      ],
      "stateMutability": "nonpayable",
      "type": "constructor"
    },
    {
      "inputs": [],
      "name": "EmptyHash",
      "type": "error"
    },
    {
      "inputs": [],
      "name": "InvalidWriter",
      "type": "error"
    },
    {
      "inputs": [
        {
          "internalType": "address",
          "name": "owner",
          "type": "address"
        }
      ],
      "name": "OwnableInvalidOwner",
      "type": "error"
    },
    {
      "inputs": [
        {
          "internalType": "address",
          "name": "account",
          "type": "address"
        }
      ],
      "name": "OwnableUnauthorizedAccount",
      "type": "error"
    },
    {
      "inputs": [
        {
          "internalType": "bytes32",
          "name": "proofId",
          "type": "bytes32"
        }
      ],
      "name": "ProofAlreadyExists",
      "type": "error"
    },
    {
      "inputs": [],
      "name": "UnauthorizedWriter",
      "type": "error"
    },
    {
      "anonymous": false,
      "inputs": [
        {
          "indexed": true,
          "internalType": "address",
          "name": "previousOwner",
          "type": "address"
        },
        {
          "indexed": true,
          "internalType": "address",
          "name": "newOwner",
          "type": "address"
        }
      ],
      "name": "OwnershipTransferred",
      "type": "event"
    },
    {
      "anonymous": false,
      "inputs": [
        {
          "indexed": true,
          "internalType": "bytes32",
          "name": "proofId",
          "type": "bytes32"
        },
        {
          "indexed": true,
          "internalType": "bytes32",
          "name": "documentIdHash",
          "type": "bytes32"
        },
        {
          "indexed": true,
          "internalType": "bytes32",
          "name": "actionHash",
          "type": "bytes32"
        },
        {
          "indexed": false,
          "internalType": "bytes32",
          "name": "payloadHash",
          "type": "bytes32"
        },
        {
          "indexed": false,
          "internalType": "address",
          "name": "writer",
          "type": "address"
        },
        {
          "indexed": false,
          "internalType": "uint256",
          "name": "recordedAt",
          "type": "uint256"
        }
      ],
      "name": "ProofRecorded",
      "type": "event"
    },
    {
      "anonymous": false,
      "inputs": [
        {
          "indexed": true,
          "internalType": "address",
          "name": "writer",
          "type": "address"
        },
        {
          "indexed": false,
          "internalType": "bool",
          "name": "allowed",
          "type": "bool"
        }
      ],
      "name": "TrustedWriterUpdated",
      "type": "event"
    },
    {
      "inputs": [
        {
          "internalType": "bytes32",
          "name": "documentIdHash",
          "type": "bytes32"
        },
        {
          "internalType": "bytes32",
          "name": "actionHash",
          "type": "bytes32"
        },
        {
          "internalType": "bytes32",
          "name": "payloadHash",
          "type": "bytes32"
        },
        {
          "internalType": "uint256",
          "name": "nonce",
          "type": "uint256"
        }
      ],
      "name": "computeProofId",
      "outputs": [
        {
          "internalType": "bytes32",
          "name": "",
          "type": "bytes32"
        }
      ],
      "stateMutability": "pure",
      "type": "function"
    },
    {
      "inputs": [
        {
          "internalType": "bytes32",
          "name": "proofId",
          "type": "bytes32"
        }
      ],
      "name": "getProof",
      "outputs": [
        {
          "components": [
            {
              "internalType": "bytes32",
              "name": "documentIdHash",
              "type": "bytes32"
            },
            {
              "internalType": "bytes32",
              "name": "actionHash",
              "type": "bytes32"
            },
            {
              "internalType": "bytes32",
              "name": "payloadHash",
              "type": "bytes32"
            },
            {
              "internalType": "address",
              "name": "writer",
              "type": "address"
            },
            {
              "internalType": "uint64",
              "name": "recordedAt",
              "type": "uint64"
            }
          ],
          "internalType": "struct HedwigProofRegistry.Proof",
          "name": "",
          "type": "tuple"
        }
      ],
      "stateMutability": "view",
      "type": "function"
    },
    {
      "inputs": [],
      "name": "owner",
      "outputs": [
        {
          "internalType": "address",
          "name": "",
          "type": "address"
        }
      ],
      "stateMutability": "view",
      "type": "function"
    },
    {
      "inputs": [],
      "name": "proofCount",
      "outputs": [
        {
          "internalType": "uint256",
          "name": "",
          "type": "uint256"
        }
      ],
      "stateMutability": "view",
      "type": "function"
    },
    {
      "inputs": [
        {
          "internalType": "bytes32",
          "name": "proofId",
          "type": "bytes32"
        }
      ],
      "name": "proofExists",
      "outputs": [
        {
          "internalType": "bool",
          "name": "",
          "type": "bool"
        }
      ],
      "stateMutability": "view",
      "type": "function"
    },
    {
      "inputs": [
        {
          "internalType": "bytes32",
          "name": "documentIdHash",
          "type": "bytes32"
        },
        {
          "internalType": "bytes32",
          "name": "actionHash",
          "type": "bytes32"
        },
        {
          "internalType": "bytes32",
          "name": "payloadHash",
          "type": "bytes32"
        },
        {
          "internalType": "uint256",
          "name": "nonce",
          "type": "uint256"
        }
      ],
      "name": "recordProof",
      "outputs": [
        {
          "internalType": "bytes32",
          "name": "proofId",
          "type": "bytes32"
        }
      ],
      "stateMutability": "nonpayable",
      "type": "function"
    },
    {
      "inputs": [],
      "name": "renounceOwnership",
      "outputs": [],
      "stateMutability": "nonpayable",
      "type": "function"
    },
    {
      "inputs": [
        {
          "internalType": "address",
          "name": "writer",
          "type": "address"
        },
        {
          "internalType": "bool",
          "name": "allowed",
          "type": "bool"
        }
      ],
      "name": "setTrustedWriter",
      "outputs": [],
      "stateMutability": "nonpayable",
      "type": "function"
    },
    {
      "inputs": [
        {
          "internalType": "address",
          "name": "newOwner",
          "type": "address"
        }
      ],
      "name": "transferOwnership",
      "outputs": [],
      "stateMutability": "nonpayable",
      "type": "function"
    },
    {
      "inputs": [
        {
          "internalType": "address",
          "name": "",
          "type": "address"
        }
      ],
      "name": "trustedWriters",
      "outputs": [
        {
          "internalType": "bool",
          "name": "",
          "type": "bool"
        }
      ],
      "stateMutability": "view",
      "type": "function"
    }
  ],
  "bytecode": "0x608060405234801561001057600080fd5b5060405161089738038061089783398101604081905261002f9161015c565b816001600160a01b03811661005e57604051631e4fbdf760e01b81526000600482015260240160405180910390fd5b610067816100f0565b506001600160a01b03811661008f5760405163050e56fb60e31b815260040160405180910390fd5b6001600160a01b038116600081815260026020908152604091829020805460ff1916600190811790915591519182527fe62d4ea98e65f00c29519c6e0bb1c75448673aabaa99ba441f5a9e885ca4a79e910160405180910390a2505061018f565b600080546001600160a01b038381166001600160a01b0319831681178455604051919092169283917f8be0079c531659141344cd1fd0a4f28419497f9722a3daafe3b4186f6b6457e09190a35050565b80516001600160a01b038116811461015757600080fd5b919050565b6000806040838503121561016f57600080fd5b61017883610140565b915061018660208401610140565b90509250929050565b6106f98061019e6000396000f3fe608060405234801561001057600080fd5b506004361061009e5760003560e01c8063addecc0611610066578063addecc061461024b578063d938d20214610254578063f2fde38b1461028a578063fa09b2681461029d578063fbeebe17146102b057600080fd5b80631b80bb3a146100a3578063303afab514610199578063715018a6146101f35780638da5cb5b146101fd5780639f45ef6714610218575b600080fd5b6101406100b13660046105fe565b6040805160a08101825260008082526020820181905291810182905260608101829052608081019190915250600090815260016020818152604092839020835160a0810185528154815292810154918301919091526002810154928201929092526003909101546001600160a01b0381166060830152600160a01b900467ffffffffffffffff16608082015290565b60405161019091908151815260208083015190820152604080830151908201526060808301516001600160a01b03169082015260809182015167ffffffffffffffff169181019190915260a00190565b60405180910390f35b6101e56101a7366004610617565b604080516020808201969096528082019490945260608401929092526080808401919091528151808403909101815260a09092019052805191012090565b604051908152602001610190565b6101fb6102c3565b005b6000546040516001600160a01b039091168152602001610190565b61023b610226366004610665565b60026020526000908152604090205460ff1681565b6040519015158152602001610190565b6101e560035481565b61023b6102623660046105fe565b600090815260016020526040902060030154600160a01b900467ffffffffffffffff16151590565b6101fb610298366004610665565b6102d7565b6101fb6102ab366004610687565b61031a565b6101e56102be366004610617565b6103a8565b6102cb610581565b6102d560006105ae565b565b6102df610581565b6001600160a01b03811661030e57604051631e4fbdf760e01b8152600060048201526024015b60405180910390fd5b610317816105ae565b50565b610322610581565b6001600160a01b0382166103495760405163050e56fb60e31b815260040160405180910390fd5b6001600160a01b038216600081815260026020908152604091829020805460ff191685151590811790915591519182527fe62d4ea98e65f00c29519c6e0bb1c75448673aabaa99ba441f5a9e885ca4a79e910160405180910390a25050565b600080546001600160a01b031633148015906103d457503360009081526002602052604090205460ff16155b156103f25760405163b426abc160e01b815260040160405180910390fd5b8415806103fd575083155b80610406575082155b1561042457604051631c37cddf60e21b815260040160405180910390fd5b6040805160208082018890528183018790526060820186905260808083018690528351808403909101815260a09092019092528051910120600081815260016020526040902060030154909150600160a01b900467ffffffffffffffff16156104a35760405163d18b7fa960e01b815260048101829052602401610305565b6040805160a081018252868152602080820187815282840187815233606080860182815267ffffffffffffffff4281811660808a0190815260008c81526001808b52908c90209a518b5597518a890155955160028a01559151600398890180549651909216600160a01b026001600160e01b03199096166001600160a01b0390911617949094179093558554909301909455845188815292830193909352928101919091528591879184917f7e4bf78a7efc43f310d1359a01362dcffa27a97c1188e8bec7d65fab4a47492a910160405180910390a4949350505050565b6000546001600160a01b031633146102d55760405163118cdaa760e01b8152336004820152602401610305565b600080546001600160a01b038381166001600160a01b0319831681178455604051919092169283917f8be0079c531659141344cd1fd0a4f28419497f9722a3daafe3b4186f6b6457e09190a35050565b60006020828403121561061057600080fd5b5035919050565b6000806000806080858703121561062d57600080fd5b5050823594602084013594506040840135936060013592509050565b80356001600160a01b038116811461066057600080fd5b919050565b60006020828403121561067757600080fd5b61068082610649565b9392505050565b6000806040838503121561069a57600080fd5b6106a383610649565b9150602083013580151581146106b857600080fd5b80915050925092905056fea264697066735822122037b93eef7fefad129c59e60375197eed37b0763011203059bf546e009f9623de64736f6c634300081c0033",
  "linkReferences": {},
  "deployedLinkReferences": {}
}