{"contracts/HedwigProofRegistry.sol":{"HedwigProofRegistry":{"abi":[{"inputs":[{"internalType":"address","name":"initialOwner","type":"address"},{"internalType":"address","name":"initialWriter","type":"address"}],"stateMutability":"nonpayable","type":"constructor"},{"inputs":[],"name":"EmptyHash","type":"error"},{"inputs":[],"name":"InvalidWriter","type":"error"},{"inputs":[{"internalType":"address","name":"owner","type":"address"}],"name":"OwnableInvalidOwner","type":"error"},{"inputs":[{"internalType":"address","name":"account","type":"address"}],"name":"OwnableUnauthorizedAccount","type":"error"},{"inputs":[{"internalType":"bytes32","name":"proofId","type":"bytes32"}],"name":"ProofAlreadyExists","type":"error"},{"inputs":[],"name":"UnauthorizedWriter","type":"error"},{"anonymous":false,"inputs":[{"indexed":true,"internalType":"address","name":"previousOwner","type":"address"},{"indexed":true,"internalType":"address","name":"newOwner","type":"address"}],"name":"OwnershipTransferred","type":"event"},{"anonymous":false,"inputs":[{"indexed":true,"internalType":"bytes32","name":"proofId","type":"bytes32"},{"indexed":true,"internalType":"bytes32","name":"documentIdHash","type":"bytes32"},{"indexed":true,"internalType":"bytes32","name":"actionHash","type":"bytes32"},{"indexed":false,"internalType":"bytes32","name":"payloadHash","type":"bytes32"},{"indexed":false,"internalType":"address","name":"writer","type":"address"},{"indexed":false,"internalType":"uint256","name":"recordedAt","type":"uint256"}],"name":"ProofRecorded","type":"event"},{"anonymous":false,"inputs":[{"indexed":true,"internalType":"address","name":"writer","type":"address"},{"indexed":false,"internalType":"bool","name":"allowed","type":"bool"}],"name":"TrustedWriterUpdated","type":"event"},{"inputs":[{"internalType":"bytes32","name":"documentIdHash","type":"bytes32"},{"internalType":"bytes32","name":"actionHash","type":"bytes32"},{"internalType":"bytes32","name":"payloadHash","type":"bytes32"},{"internalType":"uint256","name":"nonce","type":"uint256"}],"name":"computeProofId","outputs":[{"internalType":"bytes32","name":"","type":"bytes32"}],"stateMutability":"pure","type":"function"},{"inputs":[{"internalType":"bytes32","name":"proofId","type":"bytes32"}],"name":"getProof","outputs":[{"components":[{"internalType":"bytes32","name":"documentIdHash","type":"bytes32"},{"internalType":"bytes32","name":"actionHash","type":"bytes32"},{"internalType":"bytes32","name":"payloadHash","type":"bytes32"},{"internalType":"address","name":"writer","type":"address"},{"internalType":"uint64","name":"recordedAt","type":"uint64"}],"internalType":"struct HedwigProofRegistry.Proof","name":"","type":"tuple"}],"stateMutability":"view","type":"function"},{"inputs":[],"name":"owner","outputs":[{"internalType":"address","name":"","type":"address"}],"stateMutability":"view","type":"function"},{"inputs":[],"name":"proofCount","outputs":[{"internalType":"uint256","name":"","type":"uint256"}],"stateMutability":"view","type":"function"},{"inputs":[{"internalType":"bytes32","name":"proofId","type":"bytes32"}],"name":"proofExists","outputs":[{"internalType":"bool","name":"","type":"bool"}],"stateMutability":"view","type":"function"},{"inputs":[{"internalType":"bytes32","name":"documentIdHash","type":"bytes32"},{"internalType":"bytes32","name":"actionHash","type":"bytes32"},{"internalType":"bytes32","name":"payloadHash","type":"bytes32"},{"internalType":"uint256","name":"nonce","type":"uint256"}],"name":"recordProof","outputs":[{"internalType":"bytes32","name":"proofId","type":"bytes32"}],"stateMutability":"nonpayable","type":"function"},{"inputs":[],"name":"renounceOwnership","outputs":[],"stateMutability":"nonpayable","type":"function"},{"inputs":[{"internalType":"address","name":"writer","type":"address"},{"internalType":"bool","name":"allowed","type":"bool"}],"name":"setTrustedWriter","outputs":[],"stateMutability":"nonpayable","type":"function"},{"inputs":[{"internalType":"address","name":"newOwner","type":"address"}],"name":"transferOwnership","outputs":[],"stateMutability":"nonpayable","type":"function"},{"inputs":[{"internalType":"address","name":"","type":"address"}],"name":"trustedWriters","outputs":[{"internalType":"bool","name":"","type":"bool"}],"stateMutability":"view","type":"function"}],"evm":{"bytecode":{"linkReferences":{},"object":"608060405234801561001057600080fd5b5060405161089738038061089783398101604081905261002f9161015c565b816001600160a01b03811661005e57604051631e4fbdf760e01b81526000600482015260240160405180910390fd5b610067816100f0565b506001600160a01b03811661008f5760405163050e56fb60e31b815260040160405180910390fd5b6001600160a01b038116600081815260026020908152604091829020805460ff1916600190811790915591519182527fe62d4ea98e65f00c29519c6e0bb1c75448673aabaa99ba441f5a9e885ca4a79e910160405180910390a2505061018f565b600080546001600160a01b038381166001600160a01b0319831681178455604051919092169283917f8be0079c531659141344cd1fd0a4f28419497f9722a3daafe3b4186f6b6457e09190a35050565b80516001600160a01b038116811461015757600080fd5b919050565b6000806040838503121561016f57600080fd5b61017883610140565b915061018660208401610140565b90509250929050565b6106f98061019e6000396000f3fe608060405234801561001057600080fd5b506004361061009e5760003560e01c8063addecc0611610066578063addecc061461024b578063d938d20214610254578063f2fde38b1461028a578063fa09b2681461029d578063fbeebe17146102b057600080fd5b80631b80bb3a146100a3578063303afab514610199578063715018a6146101f35780638da5cb5b146101fd5780639f45ef6714610218575b600080fd5b6101406100b13660046105fe565b6040805160a08101825260008082526020820181905291810182905260608101829052608081019190915250600090815260016020818152604092839020835160a0810185528154815292810154918301919091526002810154928201929092526003909101546001600160a01b0381166060830152600160a01b900467ffffffffffffffff16608082015290565b60405161019091908151815260208083015190820152604080830151908201526060808301516001600160a01b03169082015260809182015167ffffffffffffffff169181019190915260a00190565b60405180910390f35b6101e56101a7366004610617565b604080516020808201969096528082019490945260608401929092526080808401919091528151808403909101815260a09092019052805191012090565b604051908152602001610190565b6101fb6102c3565b005b6000546040516001600160a01b039091168152602001610190565b61023b610226366004610665565b60026020526000908152604090205460ff1681565b6040519015158152602001610190565b6101e560035481565b61023b6102623660046105fe565b600090815260016020526040902060030154600160a01b900467ffffffffffffffff16151590565b6101fb610298366004610665565b6102d7565b6101fb6102ab366004610687565b61031a565b6101e56102be366004610617565b6103a8565b6102cb610581565b6102d560006105ae565b565b6102df610581565b6001600160a01b03811661030e57604051631e4fbdf760e01b8152600060048201526024015b60405180910390fd5b610317816105ae565b50565b610322610581565b6001600160a01b0382166103495760405163050e56fb60e31b815260040160405180910390fd5b6001600160a01b038216600081815260026020908152604091829020805460ff191685151590811790915591519182527fe62d4ea98e65f00c29519c6e0bb1c75448673aabaa99ba441f5a9e885ca4a79e910160405180910390a25050565b600080546001600160a01b031633148015906103d457503360009081526002602052604090205460ff16155b156103f25760405163b426abc160e01b815260040160405180910390fd5b8415806103fd575083155b80610406575082155b1561042457604051631c37cddf60e21b815260040160405180910390fd5b6040805160208082018890528183018790526060820186905260808083018690528351808403909101815260a09092019092528051910120600081815260016020526040902060030154909150600160a01b900467ffffffffffffffff16156104a35760405163d18b7fa960e01b815260048101829052602401610305565b6040805160a081018252868152602080820187815282840187815233606080860182815267ffffffffffffffff4281811660808a0190815260008c81526001808b52908c90209a518b5597518a890155955160028a01559151600398890180549651909216600160a01b026001600160e01b03199096166001600160a01b0390911617949094179093558554909301909455845188815292830193909352928101919091528591879184917f7e4bf78a7efc43f310d1359a01362dcffa27a97c1188e8bec7d65fab4a47492a910160405180910390a4949350505050565b6000546001600160a01b031633146102d55760405163118cdaa760e01b8152336004820152602401610305565b600080546001600160a01b038381166001600160a01b0319831681178455604051919092169283917f8be0079c531659141344cd1fd0a4f28419497f9722a3daafe3b4186f6b6457e09190a35050565b60006020828403121561061057600080fd5b5035919050565b6000806000806080858703121561062d57600080fd5b5050823594602084013594506040840135936060013592509050565b80356001600160a01b038116811461066057600080fd5b919050565b60006020828403121561067757600080fd5b61068082610649565b9392505050565b6000806040838503121561069a57600080fd5b6106a383610649565b9150602083013580151581146106b857600080fd5b80915050925092905056fea264697066735822122037b93eef7fefad129c59e60375197eed37b0763011203059bf546e009f9623de64736f6c634300081c0033","opcodes":"PUSH1 0x80 PUSH1 0x40 MSTORE CALLVALUE DUP1 ISZERO PUSH2 0x10 JUMPI PUSH1 0x0 DUP1 REVERT JUMPDEST POP PUSH1 0x40 MLOAD PUSH2 0x897 CODESIZE SUB DUP1 PUSH2 0x897 DUP4 CODECOPY DUP2 ADD PUSH1 0x40 DUP2 SWAP1 MSTORE PUSH2 0x2F SWAP2 PUSH2 0x15C JUMP JUMPDEST DUP2 PUSH1 0x1 PUSH1 0x1 PUSH1 0xA0 SHL SUB DUP2 AND PUSH2 0x5E JUMPI PUSH1 0x40 MLOAD PUSH4 0x1E4FBDF7 PUSH1 0xE0 SHL DUP2 MSTORE PUSH1 0x0 PUSH1 0x4 DUP3 ADD MSTORE PUSH1 0x24 ADD PUSH1 0x40 MLOAD DUP1 SWAP2 SUB SWAP1 REVERT JUMPDEST PUSH2 0x67 DUP2 PUSH2 0xF0 JUMP JUMPDEST POP PUSH1 0x1 PUSH1 0x1 PUSH1 0xA0 SHL SUB DUP2 AND PUSH2 0x8F JUMPI PUSH1 0x40 MLOAD PUSH4 0x50E56FB PUSH1 0xE3 SHL DUP2 MSTORE PUSH1 0x4 ADD PUSH1 0x40 MLOAD DUP1 SWAP2 SUB SWAP1 REVERT JUMPDEST PUSH1 0x1 PUSH1 0x1 PUSH1 0xA0 SHL SUB DUP2 AND PUSH1 0x0 DUP2 DUP2 MSTORE PUSH1 0x2 PUSH1 0x20 SWAP1 DUP2 MSTORE PUSH1 0x40 SWAP2 DUP3 SWAP1 KECCAK256 DUP1 SLOAD PUSH1 0xFF NOT AND PUSH1 0x1 SWAP1 DUP2 OR SWAP1 SWAP2 SSTORE SWAP2 MLOAD SWAP2 DUP3 MSTORE PUSH32 0xE62D4EA98E65F00C29519C6E0BB1C75448673AABAA99BA441F5A9E885CA4A79E SWAP2 ADD PUSH1 0x40 MLOAD DUP1 SWAP2 SUB SWAP1 LOG2 POP POP PUSH2 0x18F JUMP JUMPDEST PUSH1 0x0 DUP1 SLOAD PUSH1 0x1 PUSH1 0x1 PUSH1 0xA0 SHL SUB DUP4 DUP2 AND PUSH1 0x1 PUSH1 0x1 PUSH1 0xA0 SHL SUB NOT DUP4 AND DUP2 OR DUP5 SSTORE PUSH1 0x40 MLOAD SWAP2 SWAP1 SWAP3 AND SWAP3 DUP4 SWAP2 PUSH32 0x8BE0079C531659141344CD1FD0A4F28419497F9722A3DAAFE3B4186F6B6457E0 SWAP2 SWAP1 LOG3 POP POP JUMP JUMPDEST DUP1 MLOAD PUSH1 0x1 PUSH1 0x1 PUSH1 0xA0 SHL SUB DUP2 AND DUP2 EQ PUSH2 0x157 JUMPI PUSH1 0x0 DUP1 REVERT JUMPDEST SWAP2 SWAP1 POP JUMP JUMPDEST PUSH1 0x0 DUP1 PUSH1 0x40 DUP4 DUP6 SUB SLT ISZERO PUSH2 0x16F JUMPI PUSH1 0x0 DUP1 REVERT JUMPDEST PUSH2 0x178 DUP4 PUSH2 0x140 JUMP JUMPDEST SWAP2 POP PUSH2 0x186 PUSH1 0x20 DUP5 ADD PUSH2 0x140 JUMP JUMPDEST SWAP1 POP SWAP3 POP SWAP3 SWAP1 POP JUMP JUMPDEST PUSH2 0x6F9 DUP1 PUSH2 0x19E PUSH1 0x0 CODECOPY PUSH1 0x0 RETURN INVALID PUSH1 0x80 PUSH1 0x40 MSTORE CALLVALUE DUP1 ISZERO PUSH2 0x10 JUMPI PUSH1 0x0 DUP1 REVERT JUMPDEST POP PUSH1 0x4 CALLDATASIZE LT PUSH2 0x9E JUMPI PUSH1 0x0 CALLDATALOAD PUSH1 0xE0 SHR DUP1 PUSH4 0xADDECC06 GT PUSH2 0x66 JUMPI DUP1 PUSH4 0xADDECC06 EQ PUSH2 0x24B JUMPI DUP1 PUSH4 0xD938D202 EQ PUSH2 0x254 JUMPI DUP1 PUSH4 0xF2FDE38B EQ PUSH2 0x28A JUMPI DUP1 PUSH4 0xFA09B268 EQ PUSH2 0x29D JUMPI DUP1 PUSH4 0xFBEEBE17 EQ PUSH2 0x2B0 JUMPI PUSH1 0x0 DUP1 REVERT JUMPDEST DUP1 PUSH4 0x1B80BB3A EQ PUSH2 0xA3 JUMPI DUP1 PUSH4 0x303AFAB5 EQ PUSH2 0x199 JUMPI DUP1 PUSH4 0x715018A6 EQ PUSH2 0x1F3 JUMPI DUP1 PUSH4 0x8DA5CB5B EQ PUSH2 0x1FD JUMPI DUP1 PUSH4 0x9F45EF67 EQ PUSH2 0x218 JUMPI JUMPDEST PUSH1 0x0 DUP1 REVERT JUMPDEST PUSH2 0x140 PUSH2 0xB1 CALLDATASIZE PUSH1 0x4 PUSH2 0x5FE JUMP JUMPDEST PUSH1 0x40 DUP1 MLOAD PUSH1 0xA0 DUP2 ADD DUP3 MSTORE PUSH1 0x0 DUP1 DUP3 MSTORE PUSH1 0x20 DUP3 ADD DUP2 SWAP1 MSTORE SWAP2 DUP2 ADD DUP3 SWAP1 MSTORE PUSH1 0x60 DUP2 ADD DUP3 SWAP1 MSTORE PUSH1 0x80 DUP2 ADD SWAP2 SWAP1 SWAP2 MSTORE POP PUSH1 0x0 SWAP1 DUP2 MSTORE PUSH1 0x1 PUSH1 0x20 DUP2 DUP2 MSTORE PUSH1 0x40 SWAP3 DUP4 SWAP1 KECCAK256 DUP4 MLOAD PUSH1 0xA0 DUP2 ADD DUP6 MSTORE DUP2 SLOAD DUP2 MSTORE SWAP3 DUP2 ADD SLOAD SWAP2 DUP4 ADD SWAP2 SWAP1 SWAP2 MSTORE PUSH1 0x2 DUP2 ADD SLOAD SWAP3 DUP3 ADD SWAP3 SWAP1 SWAP3 MSTORE PUSH1 0x3 SWAP1 SWAP2 ADD SLOAD PUSH1 0x1 PUSH1 0x1 PUSH1 0xA0 SHL SUB DUP2 AND PUSH1 0x60 DUP4 ADD MSTORE PUSH1 0x1 PUSH1 0xA0 SHL SWAP1 DIV PUSH8 0xFFFFFFFFFFFFFFFF AND PUSH1 0x80 DUP3 ADD MSTORE SWAP1 JUMP JUMPDEST PUSH1 0x40 MLOAD PUSH2 0x190 SWAP2 SWAP1 DUP2 MLOAD DUP2 MSTORE PUSH1 0x20 DUP1 DUP4 ADD MLOAD SWAP1 DUP3 ADD MSTORE PUSH1 0x40 DUP1 DUP4 ADD MLOAD SWAP1 DUP3 ADD MSTORE PUSH1 0x60 DUP1 DUP4 ADD MLOAD PUSH1 0x1 PUSH1 0x1 PUSH1 0xA0 SHL SUB AND SWAP1 DUP3 ADD MSTORE PUSH1 0x80 SWAP2 DUP3 ADD MLOAD PUSH8 0xFFFFFFFFFFFFFFFF AND SWAP2 DUP2 ADD SWAP2 SWAP1 SWAP2 MSTORE PUSH1 0xA0 ADD SWAP1 JUMP JUMPDEST PUSH1 0x40 MLOAD DUP1 SWAP2 SUB SWAP1 RETURN JUMPDEST PUSH2 0x1E5 PUSH2 0x1A7 CALLDATASIZE PUSH1 0x4 PUSH2 0x617 JUMP JUMPDEST PUSH1 0x40 DUP1 MLOAD PUSH1 0x20 DUP1 DUP3 ADD SWAP7 SWAP1 SWAP7 MSTORE DUP1 DUP3 ADD SWAP5 SWAP1 SWAP5 MSTORE PUSH1 0x60 DUP5 ADD SWAP3 SWAP1 SWAP3 MSTORE PUSH1 0x80 DUP1 DUP5 ADD SWAP2 SWAP1 SWAP2 MSTORE DUP2 MLOAD DUP1 DUP5 SUB SWAP1 SWAP2 ADD DUP2 MSTORE PUSH1 0xA0 SWAP1 SWAP3 ADD SWAP1 MSTORE DUP1 MLOAD SWAP2 ADD KECCAK256 SWAP1 JUMP JUMPDEST PUSH1 0x40 MLOAD SWAP1 DUP2 MSTORE PUSH1 0x20 ADD PUSH2 0x190 JUMP JUMPDEST PUSH2 0x1FB PUSH2 0x2C3 JUMP JUMPDEST STOP JUMPDEST PUSH1 0x0 SLOAD PUSH1 0x40 MLOAD PUSH1 0x1 PUSH1 0x1 PUSH1 0xA0 SHL SUB SWAP1 SWAP2 AND DUP2 MSTORE PUSH1 0x20 ADD PUSH2 0x190 JUMP JUMPDEST PUSH2 0x23B PUSH2 0x226 CALLDATASIZE PUSH1 0x4 PUSH2 0x665 JUMP JUMPDEST PUSH1 0x2 PUSH1 0x20 MSTORE PUSH1 0x0 SWAP1 DUP2 MSTORE PUSH1 0x40 SWAP1 KECCAK256 SLOAD PUSH1 0xFF AND DUP2 JUMP JUMPDEST PUSH1 0x40 MLOAD SWAP1 ISZERO ISZERO DUP2 MSTORE PUSH1 0x20 ADD PUSH2 0x190 JUMP JUMPDEST PUSH2 0x1E5 PUSH1 0x3 SLOAD DUP2 JUMP JUMPDEST PUSH2 0x23B PUSH2 0x262 CALLDATASIZE PUSH1 0x4 PUSH2 0x5FE JUMP JUMPDEST PUSH1 0x0 SWAP1 DUP2 MSTORE PUSH1 0x1 PUSH1 0x20 MSTORE PUSH1 0x40 SWAP1 KECCAK256 PUSH1 0x3 ADD SLOAD PUSH1 0x1 PUSH1 0xA0 SHL SWAP1 DIV PUSH8 0xFFFFFFFFFFFFFFFF AND ISZERO ISZERO SWAP1 JUMP JUMPDEST PUSH2 0x1FB PUSH2 0x298 CALLDATASIZE PUSH1 0x4 PUSH2 0x665 JUMP JUMPDEST PUSH2 0x2D7 JUMP JUMPDEST PUSH2 0x1FB PUSH2 0x2AB CALLDATASIZE PUSH1 0x4 PUSH2 0x687 JUMP JUMPDEST PUSH2 0x31A JUMP JUMPDEST PUSH2 0x1E5 PUSH2 0x2BE CALLDATASIZE PUSH1 0x4 PUSH2 0x617 JUMP JUMPDEST PUSH2 0x3A8 JUMP JUMPDEST PUSH2 0x2CB PUSH2 0x581 JUMP JUMPDEST PUSH2 0x2D5 PUSH1 0x0 PUSH2 0x5AE JUMP JUMPDEST JUMP JUMPDEST PUSH2 0x2DF PUSH2 0x581 JUMP JUMPDEST PUSH1 0x1 PUSH1 0x1 PUSH1 0xA0 SHL SUB DUP2 AND PUSH2 0x30E JUMPI PUSH1 0x40 MLOAD PUSH4 0x1E4FBDF7 PUSH1 0xE0 SHL DUP2 MSTORE PUSH1 0x0 PUSH1 0x4 DUP3 ADD MSTORE PUSH1 0x24 ADD JUMPDEST PUSH1 0x40 MLOAD DUP1 SWAP2 SUB SWAP1 REVERT JUMPDEST PUSH2 0x317 DUP2 PUSH2 0x5AE JUMP JUMPDEST POP JUMP JUMPDEST PUSH2 0x322 PUSH2 0x581 JUMP JUMPDEST PUSH1 0x1 PUSH1 0x1 PUSH1 0xA0 SHL SUB DUP3 AND PUSH2 0x349 JUMPI PUSH1 0x40 MLOAD PUSH4 0x50E56FB PUSH1 0xE3 SHL DUP2 MSTORE PUSH1 0x4 ADD PUSH1 0x40 MLOAD DUP1 SWAP2 SUB SWAP1 REVERT JUMPDEST PUSH1 0x1 PUSH1 0x1 PUSH1 0xA0 SHL SUB DUP3 AND PUSH1 0x0 DUP2 DUP2 MSTORE PUSH1 0x2 PUSH1 0x20 SWAP1 DUP2 MSTORE PUSH1 0x40 SWAP2 DUP3 SWAP1 KECCAK256 DUP1 SLOAD PUSH1 0xFF NOT AND DUP6 ISZERO ISZERO SWAP1 DUP2 OR SWAP1 SWAP2 SSTORE SWAP2 MLOAD SWAP2 DUP3 MSTORE PUSH32 0xE62D4EA98E65F00C29519C6E0BB1C75448673AABAA99BA441F5A9E885CA4A79E SWAP2 ADD PUSH1 0x40 MLOAD DUP1 SWAP2 SUB SWAP1 LOG2 POP POP JUMP JUMPDEST PUSH1 0x0 DUP1 SLOAD PUSH1 0x1 PUSH1 0x1 PUSH1 0xA0 SHL SUB AND CALLER EQ DUP1 ISZERO SWAP1 PUSH2 0x3D4 JUMPI POP CALLER PUSH1 0x0 SWAP1 DUP2 MSTORE PUSH1 0x2 PUSH1 0x20 MSTORE PUSH1 0x40 SWAP1 KECCAK256 SLOAD PUSH1 0xFF AND ISZERO JUMPDEST ISZERO PUSH2 0x3F2 JUMPI PUSH1 0x40 MLOAD PUSH4 0xB426ABC1 PUSH1 0xE0 SHL DUP2 MSTORE PUSH1 0x4 ADD PUSH1 0x40 MLOAD DUP1 SWAP2 SUB SWAP1 REVERT JUMPDEST DUP5 ISZERO DUP1 PUSH2 0x3FD JUMPI POP DUP4 ISZERO JUMPDEST DUP1 PUSH2 0x406 JUMPI POP DUP3 ISZERO JUMPDEST ISZERO PUSH2 0x424 JUMPI PUSH1 0x40 MLOAD PUSH4 0x1C37CDDF PUSH1 0xE2 SHL DUP2 MSTORE PUSH1 0x4 ADD PUSH1 0x40 MLOAD DUP1 SWAP2 SUB SWAP1 REVERT JUMPDEST PUSH1 0x40 DUP1 MLOAD PUSH1 0x20 DUP1 DUP3 ADD DUP9 SWAP1 MSTORE DUP2 DUP4 ADD DUP8 SWAP1 MSTORE PUSH1 0x60 DUP3 ADD DUP7 SWAP1 MSTORE PUSH1 0x80 DUP1 DUP4 ADD DUP7 SWAP1 MSTORE DUP4 MLOAD DUP1 DUP5 SUB SWAP1 SWAP2 ADD DUP2 MSTORE PUSH1 0xA0 SWAP1 SWAP3 ADD SWAP1 SWAP3 MSTORE DUP1 MLOAD SWAP2 ADD KECCAK256 PUSH1 0x0 DUP2 DUP2 MSTORE PUSH1 0x1 PUSH1 0x20 MSTORE PUSH1 0x40 SWAP1 KECCAK256 PUSH1 0x3 ADD SLOAD SWAP1 SWAP2 POP PUSH1 0x1 PUSH1 0xA0 SHL SWAP1 DIV PUSH8 0xFFFFFFFFFFFFFFFF AND ISZERO PUSH2 0x4A3 JUMPI PUSH1 0x40 MLOAD PUSH4 0xD18B7FA9 PUSH1 0xE0 SHL DUP2 MSTORE PUSH1 0x4 DUP2 ADD DUP3 SWAP1 MSTORE PUSH1 0x24 ADD PUSH2 0x305 JUMP JUMPDEST PUSH1 0x40 DUP1 MLOAD PUSH1 0xA0 DUP2 ADD DUP3 MSTORE DUP7 DUP2 MSTORE PUSH1 0x20 DUP1 DUP3 ADD DUP8 DUP2 MSTORE DUP3 DUP5 ADD DUP8 DUP2 MSTORE CALLER PUSH1 0x60 DUP1 DUP7 ADD DUP3 DUP2 MSTORE PUSH8 0xFFFFFFFFFFFFFFFF TIMESTAMP DUP2 DUP2 AND PUSH1 0x80 DUP11 ADD SWAP1 DUP2 MSTORE PUSH1 0x0 DUP13 DUP2 MSTORE PUSH1 0x1 DUP1 DUP12 MSTORE SWAP1 DUP13 SWAP1 KECCAK256 SWAP11 MLOAD DUP12 SSTORE SWAP8 MLOAD DUP11 DUP10 ADD SSTORE SWAP6 MLOAD PUSH1 0x2 DUP11 ADD SSTORE SWAP2 MLOAD PUSH1 0x3 SWAP9 DUP10 ADD DUP1 SLOAD SWAP7 MLOAD SWAP1 SWAP3 AND PUSH1 0x1 PUSH1 0xA0 SHL MUL PUSH1 0x1 PUSH1 0x1 PUSH1 0xE0 SHL SUB NOT SWAP1 SWAP7 AND PUSH1 0x1 PUSH1 0x1 PUSH1 0xA0 SHL SUB SWAP1 SWAP2 AND OR SWAP5 SWAP1 SWAP5 OR SWAP1 SWAP4 SSTORE DUP6 SLOAD SWAP1 SWAP4 ADD SWAP1 SWAP5 SSTORE DUP5 MLOAD DUP9 DUP2 MSTORE SWAP3 DUP4 ADD SWAP4 SWAP1 SWAP4 MSTORE SWAP3 DUP2 ADD SWAP2 SWAP1 SWAP2 MSTORE DUP6 SWAP2 DUP8 SWAP2 DUP5 SWAP2 PUSH32 0x7E4BF78A7EFC43F310D1359A01362DCFFA27A97C1188E8BEC7D65FAB4A47492A SWAP2 ADD PUSH1 0x40 MLOAD DUP1 SWAP2 SUB SWAP1 LOG4 SWAP5 SWAP4 POP POP POP POP JUMP JUMPDEST PUSH1 0x0 SLOAD PUSH1 0x1 PUSH1 0x1 PUSH1 0xA0 SHL SUB AND CALLER EQ PUSH2 0x2D5 JUMPI PUSH1 0x40 MLOAD PUSH4 0x118CDAA7 PUSH1 0xE0 SHL DUP2 MSTORE CALLER PUSH1 0x4 DUP3 ADD MSTORE PUSH1 0x24 ADD PUSH2 0x305 JUMP JUMPDEST PUSH1 0x0 DUP1 SLOAD PUSH1 0x1 PUSH1 0x1 PUSH1 0xA0 SHL SUB DUP4 DUP2 AND PUSH1 0x1 PUSH1 0x1 PUSH1 0xA0 SHL SUB NOT DUP4 AND DUP2 OR DUP5 SSTORE PUSH1 0x40 MLOAD SWAP2 SWAP1 SWAP3 AND SWAP3 DUP4 SWAP2 PUSH32 0x8BE0079C531659141344CD1FD0A4F28419497F9722A3DAAFE3B4186F6B6457E0 SWAP2 SWAP1 LOG3 POP POP JUMP JUMPDEST PUSH1 0x0 PUSH1 0x20 DUP3 DUP5 SUB SLT ISZERO PUSH2 0x610 JUMPI PUSH1 0x0 DUP1 REVERT JUMPDEST POP CALLDATALOAD SWAP2 SWAP1 POP JUMP JUMPDEST PUSH1 0x0 DUP1 PUSH1 0x0 DUP1 PUSH1 0x80 DUP6 DUP8 SUB SLT ISZERO PUSH2 0x62D JUMPI PUSH1 0x0 DUP1 REVERT JUMPDEST POP POP DUP3 CALLDATALOAD SWAP5 PUSH1 0x20 DUP5 ADD CALLDATALOAD SWAP5 POP PUSH1 0x40 DUP5 ADD CALLDATALOAD SWAP4 PUSH1 0x60 ADD CALLDATALOAD SWAP3 POP SWAP1 POP JUMP JUMPDEST DUP1 CALLDATALOAD PUSH1 0x1 PUSH1 0x1 PUSH1 0xA0 SHL SUB DUP2 AND DUP2 EQ PUSH2 0x660 JUMPI PUSH1 0x0 DUP1 REVERT JUMPDEST SWAP2 SWAP1 POP JUMP JUMPDEST PUSH1 0x0 PUSH1 0x20 DUP3 DUP5 SUB SLT ISZERO PUSH2 0x677 JUMPI PUSH1 0x0 DUP1 REVERT JUMPDEST PUSH2 0x680 DUP3 PUSH2 0x649 JUMP JUMPDEST SWAP4 SWAP3 POP POP POP JUMP JUMPDEST PUSH1 0x0 DUP1 PUSH1 0x40 DUP4 DUP6 SUB SLT ISZERO PUSH2 0x69A JUMPI PUSH1 0x0 DUP1 REVERT JUMPDEST PUSH2 0x6A3 DUP4 PUSH2 0x649 JUMP JUMPDEST SWAP2 POP PUSH1 0x20 DUP4 ADD CALLDATALOAD DUP1 ISZERO ISZERO DUP2 EQ PUSH2 0x6B8 JUMPI PUSH1 0x0 DUP1 REVERT JUMPDEST DUP1 SWAP2 POP POP SWAP3 POP SWAP3 SWAP1 POP JUMP INVALID LOG2 PUSH5 0x6970667358 0x22 SLT KECCAK256 CALLDATACOPY 0xB9 RETURNDATACOPY 0xEF PUSH32 0xEFAD129C59E60375197EED37B0763011203059BF546E009F9623DE64736F6C63 NUMBER STOP ADDMOD SHR STOP CALLER "},"methodIdentifiers":{"computeProofId(bytes32,bytes32,bytes32,uint256)":"303afab5","getProof(bytes32)":"1b80bb3a","owner()":"8da5cb5b","proofCount()":"addecc06","proofExists(bytes32)":"d938d202","recordProof(bytes32,bytes32,bytes32,uint256)":"fbeebe17","renounceOwnership()":"715018a6","setTrustedWriter(address,bool)":"fa09b268","transferOwnership(address)":"f2fde38b","trustedWriters(address)":"9f45ef67"}}}}}